{
  "_format": "hh-sol-artifact-1",
  "contractName": "RealEstate",
  "sourceName": "contracts/RealEstate.sol",
  "abi": [
    {
      "inputs": [],
      "stateMutability": "nonpayable",
      "type": "constructor"
    },
    {
      "inputs": [
        {
          "internalType": "address",
          "name": "sender",
          "type": "address"
        },
        {
          "internalType": "uint256",
          "name": "tokenId",
          "type": "uint256"
        },
        {
          "internalType": "address",
          "name": "owner",
          "type": "address"
        }
      ],
      "name": "ERC721IncorrectOwner",
      "type": "error"
    },
    {
      "inputs": [
        {
          "internalType": "address",
          "name": "operator",
          "type": "address"
        },
        {
          "internalType": "uint256",
          "name": "tokenId",
          "type": "uint256"
        }
      ],
      "name": "ERC721InsufficientApproval",
      "type": "error"
    },
    {
      "inputs": [
        {
          "internalType": "address",
          "name": "approver",
          "type": "address"
        }
      ],
      "name": "ERC721InvalidApprover",
      "type": "error"
    },
    {
      "inputs": [
        {
          "internalType": "address",
          "name": "operator",
          "type": "address"
        }
      ],
      "name": "ERC721InvalidOperator",
      "type": "error"
    },
    {
      "inputs": [
        {
          "internalType": "address",
          "name": "owner",
          "type": "address"
        }
      ],
      "name": "ERC721InvalidOwner",
      "type": "error"
    },
    {
      "inputs": [
        {
          "internalType": "address",
          "name": "receiver",
          "type": "address"
        }
      ],
      "name": "ERC721InvalidReceiver",
      "type": "error"
    },
    {
      "inputs": [
        {
          "internalType": "address",
          "name": "sender",
          "type": "address"
        }
      ],
      "name": "ERC721InvalidSender",
      "type": "error"
    },
    {
      "inputs": [
        {
          "internalType": "uint256",
          "name": "tokenId",
          "type": "uint256"
        }
      ],
      "name": "ERC721NonexistentToken",
      "type": "error"
    },
    {
      "anonymous": false,
      "inputs": [
        {
          "indexed": true,
          "internalType": "address",
          "name": "owner",
          "type": "address"
        },
        {
          "indexed": true,
          "internalType": "address",
          "name": "approved",
          "type": "address"
        },
        {
          "indexed": true,
          "internalType": "uint256",
          "name": "tokenId",
          "type": "uint256"
        }
      ],
      "name": "Approval",
      "type": "event"
    },
    {
      "anonymous": false,
      "inputs": [
        {
          "indexed": true,
          "internalType": "address",
          "name": "owner",
          "type": "address"
        },
        {
          "indexed": true,
          "internalType": "address",
          "name": "operator",
          "type": "address"
        },
        {
          "indexed": false,
          "internalType": "bool",
          "name": "approved",
          "type": "bool"
        }
      ],
      "name": "ApprovalForAll",
      "type": "event"
    },
    {
      "anonymous": false,
      "inputs": [
        {
          "indexed": false,
          "internalType": "uint256",
          "name": "_fromTokenId",
          "type": "uint256"
        },
        {
          "indexed": false,
          "internalType": "uint256",
          "name": "_toTokenId",
          "type": "uint256"
        }
      ],
      "name": "BatchMetadataUpdate",
      "type": "event"
    },
    {
      "anonymous": false,
      "inputs": [
        {
          "indexed": false,
          "internalType": "uint256",
          "name": "_tokenId",
          "type": "uint256"
        }
      ],
      "name": "MetadataUpdate",
      "type": "event"
    },
    {
      "anonymous": false,
      "inputs": [
        {
          "indexed": true,
          "internalType": "address",
          "name": "from",
          "type": "address"
        },
        {
          "indexed": true,
          "internalType": "address",
          "name": "to",
          "type": "address"
        },
        {
          "indexed": true,
          "internalType": "uint256",
          "name": "tokenId",
          "type": "uint256"
        }
      ],
      "name": "Transfer",
      "type": "event"
    },
    {
      "inputs": [
        {
          "internalType": "address",
          "name": "to",
          "type": "address"
        },
        {
          "internalType": "uint256",
          "name": "tokenId",
          "type": "uint256"
        }
      ],
      "name": "approve",
      "outputs": [],
      "stateMutability": "nonpayable",
      "type": "function"
    },
    {
      "inputs": [
        {
          "internalType": "address",
          "name": "owner",
          "type": "address"
        }
      ],
      "name": "balanceOf",
      "outputs": [
        {
          "internalType": "uint256",
          "name": "",
          "type": "uint256"
        }
      ],
      "stateMutability": "view",
      "type": "function"
    },
    {
      "inputs": [
        {
          "internalType": "uint256",
          "name": "tokenId",
          "type": "uint256"
        }
      ],
      "name": "getApproved",
      "outputs": [
        {
          "internalType": "address",
          "name": "",
          "type": "address"
        }
      ],
      "stateMutability": "view",
      "type": "function"
    },
    {
      "inputs": [
        {
          "internalType": "address",
          "name": "owner",
          "type": "address"
        },
        {
          "internalType": "address",
          "name": "operator",
          "type": "address"
        }
      ],
      "name": "isApprovedForAll",
      "outputs": [
        {
          "internalType": "bool",
          "name": "",
          "type": "bool"
        }
      ],
      "stateMutability": "view",
      "type": "function"
    },
    {
      "inputs": [
        {
          "internalType": "string",
          "name": "tokenURI",
          "type": "string"
        }
      ],
      "name": "mint",
      "outputs": [
        {
          "internalType": "uint256",
          "name": "",
          "type": "uint256"
        }
      ],
      "stateMutability": "nonpayable",
      "type": "function"
    },
    {
      "inputs": [],
      "name": "name",
      "outputs": [
        {
          "internalType": "string",
          "name": "",
          "type": "string"
        }
      ],
      "stateMutability": "view",
      "type": "function"
    },
    {
      "inputs": [
        {
          "internalType": "uint256",
          "name": "tokenId",
          "type": "uint256"
        }
      ],
      "name": "ownerOf",
      "outputs": [
        {
          "internalType": "address",
          "name": "",
          "type": "address"
        }
      ],
      "stateMutability": "view",
      "type": "function"
    },
    {
      "inputs": [
        {
          "internalType": "address",
          "name": "from",
          "type": "address"
        },
        {
          "internalType": "address",
          "name": "to",
          "type": "address"
        },
        {
          "internalType": "uint256",
          "name": "tokenId",
          "type": "uint256"
        }
      ],
      "name": "safeTransferFrom",
      "outputs": [],
      "stateMutability": "nonpayable",
      "type": "function"
    },
    {
      "inputs": [
        {
          "internalType": "address",
          "name": "from",
          "type": "address"
        },
        {
          "internalType": "address",
          "name": "to",
          "type": "address"
        },
        {
          "internalType": "uint256",
          "name": "tokenId",
          "type": "uint256"
        },
        {
          "internalType": "bytes",
          "name": "data",
          "type": "bytes"
        }
      ],
      "name": "safeTransferFrom",
      "outputs": [],
      "stateMutability": "nonpayable",
      "type": "function"
    },
    {
      "inputs": [
        {
          "internalType": "address",
          "name": "operator",
          "type": "address"
        },
        {
          "internalType": "bool",
          "name": "approved",
          "type": "bool"
        }
      ],
      "name": "setApprovalForAll",
      "outputs": [],
      "stateMutability": "nonpayable",
      "type": "function"
    },
    {
      "inputs": [
        {
          "internalType": "bytes4",
          "name": "interfaceId",
          "type": "bytes4"
        }
      ],
      "name": "supportsInterface",
      "outputs": [
        {
          "internalType": "bool",
          "name": "",
          "type": "bool"
        }
      ],
      "stateMutability": "view",
      "type": "function"
    },
    {
      "inputs": [],
      "name": "symbol",
      "outputs": [
        {
          "internalType": "string",
          "name": "",
          "type": "string"
        }
      ],
      "stateMutability": "view",
      "type": "function"
    },
    {
      "inputs": [
        {
          "internalType": "uint256",
          "name": "tokenId",
          "type": "uint256"
        }
      ],
      "name": "tokenURI",
      "outputs": [
        {
          "internalType": "string",
          "name": "",
          "type": "string"
        }
      ],
      "stateMutability": "view",
      "type": "function"
    },
    {
      "inputs": [],
      "name": "totalSupply",
      "outputs": [
        {
          "internalType": "uint256",
          "name": "",
          "type": "uint256"
        }
      ],
      "stateMutability": "view",
      "type": "function"
    },
    {
      "inputs": [
        {
          "internalType": "address",
          "name": "from",
          "type": "address"
        },
        {
          "internalType": "address",
          "name": "to",
          "type": "address"
        },
        {
          "internalType": "uint256",
          "name": "tokenId",
          "type": "uint256"
        }
      ],
      "name": "transferFrom",
      "outputs": [],
      "stateMutability": "nonpayable",
      "type": "function"
    }
  ],
  "bytecode": "0x60806040523480156200001157600080fd5b506040518060400160405280600a81526020017f5265616c457374617465000000000000000000000000000000000000000000008152506040518060400160405280600481526020017f5245414c0000000000000000000000000000000000000000000000000000000081525081600090816200008f919062000324565b508060019081620000a1919062000324565b5050506200040b565b600081519050919050565b7f4e487b7100000000000000000000000000000000000000000000000000000000600052604160045260246000fd5b7f4e487b7100000000000000000000000000000000000000000000000000000000600052602260045260246000fd5b600060028204905060018216806200012c57607f821691505b602082108103620001425762000141620000e4565b5b50919050565b60008190508160005260206000209050919050565b60006020601f8301049050919050565b600082821b905092915050565b600060088302620001ac7fffffffffffffffffffffffffffffffffffffffffffffffffffffffffffffffff826200016d565b620001b886836200016d565b95508019841693508086168417925050509392505050565b6000819050919050565b6000819050919050565b600062000205620001ff620001f984620001d0565b620001da565b620001d0565b9050919050565b6000819050919050565b6200022183620001e4565b6200023962000230826200020c565b8484546200017a565b825550505050565b600090565b6200025062000241565b6200025d81848462000216565b505050565b5b8181101562000285576200027960008262000246565b60018101905062000263565b5050565b601f821115620002d4576200029e8162000148565b620002a9846200015d565b81016020851015620002b9578190505b620002d1620002c8856200015d565b83018262000262565b50505b505050565b600082821c905092915050565b6000620002f960001984600802620002d9565b1980831691505092915050565b6000620003148383620002e6565b9150826002028217905092915050565b6200032f82620000aa565b67ffffffffffffffff8111156200034b576200034a620000b5565b5b62000357825462000113565b6200036482828562000289565b600060209050601f8311600181146200039c576000841562000387578287015190505b62000393858262000306565b86555062000403565b601f198416620003ac8662000148565b60005b82811015620003d657848901518255600182019150602085019450602081019050620003af565b86831015620003f65784890151620003f2601f891682620002e6565b8355505b6001600288020188555050505b505050505050565b6123db806200041b6000396000f3fe608060405234801561001057600080fd5b50600436106100f55760003560e01c80636352211e11610097578063b88d4fde11610066578063b88d4fde14610284578063c87b56dd146102a0578063d85d3d27146102d0578063e985e9c514610300576100f5565b80636352211e146101ea57806370a082311461021a57806395d89b411461024a578063a22cb46514610268576100f5565b8063095ea7b3116100d3578063095ea7b31461017857806318160ddd1461019457806323b872dd146101b257806342842e0e146101ce576100f5565b806301ffc9a7146100fa57806306fdde031461012a578063081812fc14610148575b600080fd5b610114600480360381019061010f9190611846565b610330565b604051610121919061188e565b60405180910390f35b610132610391565b60405161013f9190611939565b60405180910390f35b610162600480360381019061015d9190611991565b610423565b60405161016f91906119ff565b60405180910390f35b610192600480360381019061018d9190611a46565b61043f565b005b61019c610455565b6040516101a99190611a95565b60405180910390f35b6101cc60048036038101906101c79190611ab0565b61045f565b005b6101e860048036038101906101e39190611ab0565b610561565b005b61020460048036038101906101ff9190611991565b610581565b60405161021191906119ff565b60405180910390f35b610234600480360381019061022f9190611b03565b610593565b6040516102419190611a95565b60405180910390f35b61025261064d565b60405161025f9190611939565b60405180910390f35b610282600480360381019061027d9190611b5c565b6106df565b005b61029e60048036038101906102999190611cd1565b6106f5565b005b6102ba60048036038101906102b59190611991565b610712565b6040516102c79190611939565b60405180910390f35b6102ea60048036038101906102e59190611df5565b610825565b6040516102f79190611a95565b60405180910390f35b61031a60048036038101906103159190611e3e565b61085e565b604051610327919061188e565b60405180910390f35b6000634906490660e01b7bffffffffffffffffffffffffffffffffffffffffffffffffffffffff1916827bffffffffffffffffffffffffffffffffffffffffffffffffffffffff1916148061038a5750610389826108f2565b5b9050919050565b6060600080546103a090611ead565b80601f01602080910402602001604051908101604052809291908181526020018280546103cc90611ead565b80156104195780601f106103ee57610100808354040283529160200191610419565b820191906000526020600020905b8154815290600101906020018083116103fc57829003601f168201915b5050505050905090565b600061042e826109d4565b5061043882610a5c565b9050919050565b610451828261044c610a99565b610aa1565b5050565b6000600754905090565b600073ffffffffffffffffffffffffffffffffffffffff168273ffffffffffffffffffffffffffffffffffffffff16036104d15760006040517f64a0ae920000000000000000000000000000000000000000000000000000000081526004016104c891906119ff565b60405180910390fd5b60006104e583836104e0610a99565b610ab3565b90508373ffffffffffffffffffffffffffffffffffffffff168173ffffffffffffffffffffffffffffffffffffffff161461055b578382826040517f64283d7b00000000000000000000000000000000000000000000000000000000815260040161055293929190611ede565b60405180910390fd5b50505050565b61057c838383604051806020016040528060008152506106f5565b505050565b600061058c826109d4565b9050919050565b60008073ffffffffffffffffffffffffffffffffffffffff168273ffffffffffffffffffffffffffffffffffffffff16036106065760006040517f89c62b640000000000000000000000000000000000000000000000000000000081526004016105fd91906119ff565b60405180910390fd5b600360008373ffffffffffffffffffffffffffffffffffffffff1673ffffffffffffffffffffffffffffffffffffffff168152602001908152602001600020549050919050565b60606001805461065c90611ead565b80601f016020809104026020016040519081016040528092919081815260200182805461068890611ead565b80156106d55780601f106106aa576101008083540402835291602001916106d5565b820191906000526020600020905b8154815290600101906020018083116106b857829003601f168201915b5050505050905090565b6106f16106ea610a99565b8383610ccd565b5050565b61070084848461045f565b61070c84848484610e3c565b50505050565b606061071d826109d4565b50600060066000848152602001908152602001600020805461073e90611ead565b80601f016020809104026020016040519081016040528092919081815260200182805461076a90611ead565b80156107b75780601f1061078c576101008083540402835291602001916107b7565b820191906000526020600020905b81548152906001019060200180831161079a57829003601f168201915b5050505050905060006107c8610ff3565b905060008151036107dd578192505050610820565b6000825111156108125780826040516020016107fa929190611f51565b60405160208183030381529060405292505050610820565b61081b8461100a565b925050505b919050565b6000806007600081548092919061083b90611fa4565b91905055905061084b3382611073565b610855818461116c565b80915050919050565b6000600560008473ffffffffffffffffffffffffffffffffffffffff1673ffffffffffffffffffffffffffffffffffffffff16815260200190815260200160002060008373ffffffffffffffffffffffffffffffffffffffff1673ffffffffffffffffffffffffffffffffffffffff16815260200190815260200160002060009054906101000a900460ff16905092915050565b60007f80ac58cd000000000000000000000000000000000000000000000000000000007bffffffffffffffffffffffffffffffffffffffffffffffffffffffff1916827bffffffffffffffffffffffffffffffffffffffffffffffffffffffff191614806109bd57507f5b5e139f000000000000000000000000000000000000000000000000000000007bffffffffffffffffffffffffffffffffffffffffffffffffffffffff1916827bffffffffffffffffffffffffffffffffffffffffffffffffffffffff1916145b806109cd57506109cc826111c8565b5b9050919050565b6000806109e083611232565b9050600073ffffffffffffffffffffffffffffffffffffffff168173ffffffffffffffffffffffffffffffffffffffff1603610a5357826040517f7e273289000000000000000000000000000000000000000000000000000000008152600401610a4a9190611a95565b60405180910390fd5b80915050919050565b60006004600083815260200190815260200160002060009054906101000a900473ffffffffffffffffffffffffffffffffffffffff169050919050565b600033905090565b610aae838383600161126f565b505050565b600080610abf84611232565b9050600073ffffffffffffffffffffffffffffffffffffffff168373ffffffffffffffffffffffffffffffffffffffff1614610b0157610b00818486611434565b5b600073ffffffffffffffffffffffffffffffffffffffff168173ffffffffffffffffffffffffffffffffffffffff1614610b9257610b4360008560008061126f565b6001600360008373ffffffffffffffffffffffffffffffffffffffff1673ffffffffffffffffffffffffffffffffffffffff168152602001908152602001600020600082825403925050819055505b600073ffffffffffffffffffffffffffffffffffffffff168573ffffffffffffffffffffffffffffffffffffffff1614610c15576001600360008773ffffffffffffffffffffffffffffffffffffffff1673ffffffffffffffffffffffffffffffffffffffff168152602001908152602001600020600082825401925050819055505b846002600086815260200190815260200160002060006101000a81548173ffffffffffffffffffffffffffffffffffffffff021916908373ffffffffffffffffffffffffffffffffffffffff160217905550838573ffffffffffffffffffffffffffffffffffffffff168273ffffffffffffffffffffffffffffffffffffffff167fddf252ad1be2c89b69c2b068fc378daa952ba7f163c4a11628f55a4df523b3ef60405160405180910390a4809150509392505050565b600073ffffffffffffffffffffffffffffffffffffffff168273ffffffffffffffffffffffffffffffffffffffff1603610d3e57816040517f5b08ba18000000000000000000000000000000000000000000000000000000008152600401610d3591906119ff565b60405180910390fd5b80600560008573ffffffffffffffffffffffffffffffffffffffff1673ffffffffffffffffffffffffffffffffffffffff16815260200190815260200160002060008473ffffffffffffffffffffffffffffffffffffffff1673ffffffffffffffffffffffffffffffffffffffff16815260200190815260200160002060006101000a81548160ff0219169083151502179055508173ffffffffffffffffffffffffffffffffffffffff168373ffffffffffffffffffffffffffffffffffffffff167f17307eab39ab6107e8899845ad3d59bd9653f200f220920489ca2b5937696c3183604051610e2f919061188e565b60405180910390a3505050565b60008373ffffffffffffffffffffffffffffffffffffffff163b1115610fed578273ffffffffffffffffffffffffffffffffffffffff1663150b7a02610e80610a99565b8685856040518563ffffffff1660e01b8152600401610ea29493929190612041565b6020604051808303816000875af1925050508015610ede57506040513d601f19601f82011682018060405250810190610edb91906120a2565b60015b610f62573d8060008114610f0e576040519150601f19603f3d011682016040523d82523d6000602084013e610f13565b606091505b506000815103610f5a57836040517f64a0ae92000000000000000000000000000000000000000000000000000000008152600401610f5191906119ff565b60405180910390fd5b805181602001fd5b63150b7a0260e01b7bffffffffffffffffffffffffffffffffffffffffffffffffffffffff1916817bffffffffffffffffffffffffffffffffffffffffffffffffffffffff191614610feb57836040517f64a0ae92000000000000000000000000000000000000000000000000000000008152600401610fe291906119ff565b60405180910390fd5b505b50505050565b606060405180602001604052806000815250905090565b6060611015826109d4565b506000611020610ff3565b90506000815111611040576040518060200160405280600081525061106b565b8061104a846114f8565b60405160200161105b929190611f51565b6040516020818303038152906040525b915050919050565b600073ffffffffffffffffffffffffffffffffffffffff168273ffffffffffffffffffffffffffffffffffffffff16036110e55760006040517f64a0ae920000000000000000000000000000000000000000000000000000000081526004016110dc91906119ff565b60405180910390fd5b60006110f383836000610ab3565b9050600073ffffffffffffffffffffffffffffffffffffffff168173ffffffffffffffffffffffffffffffffffffffff16146111675760006040517f73c6ac6e00000000000000000000000000000000000000000000000000000000815260040161115e91906119ff565b60405180910390fd5b505050565b8060066000848152602001908152602001600020908161118c919061227b565b507ff8e1a15aba9398e019f0b49df1a4fde98ee17ae345cb5f6b5e2c27f5033e8ce7826040516111bc9190611a95565b60405180910390a15050565b60007f01ffc9a7000000000000000000000000000000000000000000000000000000007bffffffffffffffffffffffffffffffffffffffffffffffffffffffff1916827bffffffffffffffffffffffffffffffffffffffffffffffffffffffff1916149050919050565b60006002600083815260200190815260200160002060009054906101000a900473ffffffffffffffffffffffffffffffffffffffff169050919050565b80806112a85750600073ffffffffffffffffffffffffffffffffffffffff168273ffffffffffffffffffffffffffffffffffffffff1614155b156113dc5760006112b8846109d4565b9050600073ffffffffffffffffffffffffffffffffffffffff168373ffffffffffffffffffffffffffffffffffffffff161415801561132357508273ffffffffffffffffffffffffffffffffffffffff168173ffffffffffffffffffffffffffffffffffffffff1614155b80156113365750611334818461085e565b155b1561137857826040517fa9fbf51f00000000000000000000000000000000000000000000000000000000815260040161136f91906119ff565b60405180910390fd5b81156113da57838573ffffffffffffffffffffffffffffffffffffffff168273ffffffffffffffffffffffffffffffffffffffff167f8c5be1e5ebec7d5bd14f71427d1e84f3dd0314c0f7b2291e5b200ac8c7c3b92560405160405180910390a45b505b836004600085815260200190815260200160002060006101000a81548173ffffffffffffffffffffffffffffffffffffffff021916908373ffffffffffffffffffffffffffffffffffffffff16021790555050505050565b61143f8383836115c6565b6114f357600073ffffffffffffffffffffffffffffffffffffffff168373ffffffffffffffffffffffffffffffffffffffff16036114b457806040517f7e2732890000000000000000000000000000000000000000000000000000000081526004016114ab9190611a95565b60405180910390fd5b81816040517f177e802f0000000000000000000000000000000000000000000000000000000081526004016114ea92919061234d565b60405180910390fd5b505050565b60606000600161150784611687565b01905060008167ffffffffffffffff81111561152657611525611ba6565b5b6040519080825280601f01601f1916602001820160405280156115585781602001600182028036833780820191505090505b509050600082602001820190505b6001156115bb578080600190039150507f3031323334353637383961626364656600000000000000000000000000000000600a86061a8153600a85816115af576115ae612376565b5b04945060008503611566575b819350505050919050565b60008073ffffffffffffffffffffffffffffffffffffffff168373ffffffffffffffffffffffffffffffffffffffff161415801561167e57508273ffffffffffffffffffffffffffffffffffffffff168473ffffffffffffffffffffffffffffffffffffffff16148061163f575061163e848461085e565b5b8061167d57508273ffffffffffffffffffffffffffffffffffffffff1661166583610a5c565b73ffffffffffffffffffffffffffffffffffffffff16145b5b90509392505050565b600080600090507a184f03e93ff9f4daa797ed6e38ed64bf6a1f01000000000000000083106116e5577a184f03e93ff9f4daa797ed6e38ed64bf6a1f01000000000000000083816116db576116da612376565b5b0492506040810190505b6d04ee2d6d415b85acef81000000008310611722576d04ee2d6d415b85acef8100000000838161171857611717612376565b5b0492506020810190505b662386f26fc10000831061175157662386f26fc10000838161174757611746612376565b5b0492506010810190505b6305f5e100831061177a576305f5e10083816117705761176f612376565b5b0492506008810190505b612710831061179f57612710838161179557611794612376565b5b0492506004810190505b606483106117c257606483816117b8576117b7612376565b5b0492506002810190505b600a83106117d1576001810190505b80915050919050565b6000604051905090565b600080fd5b600080fd5b60007fffffffff0000000000000000000000000000000000000000000000000000000082169050919050565b611823816117ee565b811461182e57600080fd5b50565b6000813590506118408161181a565b92915050565b60006020828403121561185c5761185b6117e4565b5b600061186a84828501611831565b91505092915050565b60008115159050919050565b61188881611873565b82525050565b60006020820190506118a3600083018461187f565b92915050565b600081519050919050565b600082825260208201905092915050565b60005b838110156118e35780820151818401526020810190506118c8565b60008484015250505050565b6000601f19601f8301169050919050565b600061190b826118a9565b61191581856118b4565b93506119258185602086016118c5565b61192e816118ef565b840191505092915050565b600060208201905081810360008301526119538184611900565b905092915050565b6000819050919050565b61196e8161195b565b811461197957600080fd5b50565b60008135905061198b81611965565b92915050565b6000602082840312156119a7576119a66117e4565b5b60006119b58482850161197c565b91505092915050565b600073ffffffffffffffffffffffffffffffffffffffff82169050919050565b60006119e9826119be565b9050919050565b6119f9816119de565b82525050565b6000602082019050611a1460008301846119f0565b92915050565b611a23816119de565b8114611a2e57600080fd5b50565b600081359050611a4081611a1a565b92915050565b60008060408385031215611a5d57611a5c6117e4565b5b6000611a6b85828601611a31565b9250506020611a7c8582860161197c565b9150509250929050565b611a8f8161195b565b82525050565b6000602082019050611aaa6000830184611a86565b92915050565b600080600060608486031215611ac957611ac86117e4565b5b6000611ad786828701611a31565b9350506020611ae886828701611a31565b9250506040611af98682870161197c565b9150509250925092565b600060208284031215611b1957611b186117e4565b5b6000611b2784828501611a31565b91505092915050565b611b3981611873565b8114611b4457600080fd5b50565b600081359050611b5681611b30565b92915050565b60008060408385031215611b7357611b726117e4565b5b6000611b8185828601611a31565b9250506020611b9285828601611b47565b9150509250929050565b600080fd5b600080fd5b7f4e487b7100000000000000000000000000000000000000000000000000000000600052604160045260246000fd5b611bde826118ef565b810181811067ffffffffffffffff82111715611bfd57611bfc611ba6565b5b80604052505050565b6000611c106117da565b9050611c1c8282611bd5565b919050565b600067ffffffffffffffff821115611c3c57611c3b611ba6565b5b611c45826118ef565b9050602081019050919050565b82818337600083830152505050565b6000611c74611c6f84611c21565b611c06565b905082815260208101848484011115611c9057611c8f611ba1565b5b611c9b848285611c52565b509392505050565b600082601f830112611cb857611cb7611b9c565b5b8135611cc8848260208601611c61565b91505092915050565b60008060008060808587031215611ceb57611cea6117e4565b5b6000611cf987828801611a31565b9450506020611d0a87828801611a31565b9350506040611d1b8782880161197c565b925050606085013567ffffffffffffffff811115611d3c57611d3b6117e9565b5b611d4887828801611ca3565b91505092959194509250565b600067ffffffffffffffff821115611d6f57611d6e611ba6565b5b611d78826118ef565b9050602081019050919050565b6000611d98611d9384611d54565b611c06565b905082815260208101848484011115611db457611db3611ba1565b5b611dbf848285611c52565b509392505050565b600082601f830112611ddc57611ddb611b9c565b5b8135611dec848260208601611d85565b91505092915050565b600060208284031215611e0b57611e0a6117e4565b5b600082013567ffffffffffffffff811115611e2957611e286117e9565b5b611e3584828501611dc7565b91505092915050565b60008060408385031215611e5557611e546117e4565b5b6000611e6385828601611a31565b9250506020611e7485828601611a31565b9150509250929050565b7f4e487b7100000000000000000000000000000000000000000000000000000000600052602260045260246000fd5b60006002820490506001821680611ec557607f821691505b602082108103611ed857611ed7611e7e565b5b50919050565b6000606082019050611ef360008301866119f0565b611f006020830185611a86565b611f0d60408301846119f0565b949350505050565b600081905092915050565b6000611f2b826118a9565b611f358185611f15565b9350611f458185602086016118c5565b80840191505092915050565b6000611f5d8285611f20565b9150611f698284611f20565b91508190509392505050565b7f4e487b7100000000000000000000000000000000000000000000000000000000600052601160045260246000fd5b6000611faf8261195b565b91507fffffffffffffffffffffffffffffffffffffffffffffffffffffffffffffffff8203611fe157611fe0611f75565b5b600182019050919050565b600081519050919050565b600082825260208201905092915050565b600061201382611fec565b61201d8185611ff7565b935061202d8185602086016118c5565b612036816118ef565b840191505092915050565b600060808201905061205660008301876119f0565b61206360208301866119f0565b6120706040830185611a86565b81810360608301526120828184612008565b905095945050505050565b60008151905061209c8161181a565b92915050565b6000602082840312156120b8576120b76117e4565b5b60006120c68482850161208d565b91505092915050565b60008190508160005260206000209050919050565b60006020601f8301049050919050565b600082821b905092915050565b6000600883026121317fffffffffffffffffffffffffffffffffffffffffffffffffffffffffffffffff826120f4565b61213b86836120f4565b95508019841693508086168417925050509392505050565b6000819050919050565b600061217861217361216e8461195b565b612153565b61195b565b9050919050565b6000819050919050565b6121928361215d565b6121a661219e8261217f565b848454612101565b825550505050565b600090565b6121bb6121ae565b6121c6818484612189565b505050565b5b818110156121ea576121df6000826121b3565b6001810190506121cc565b5050565b601f82111561222f57612200816120cf565b612209846120e4565b81016020851015612218578190505b61222c612224856120e4565b8301826121cb565b50505b505050565b600082821c905092915050565b600061225260001984600802612234565b1980831691505092915050565b600061226b8383612241565b9150826002028217905092915050565b612284826118a9565b67ffffffffffffffff81111561229d5761229c611ba6565b5b6122a78254611ead565b6122b28282856121ee565b600060209050601f8311600181146122e557600084156122d3578287015190505b6122dd858261225f565b865550612345565b601f1984166122f3866120cf565b60005b8281101561231b578489015182556001820191506020850194506020810190506122f6565b868310156123385784890151612334601f891682612241565b8355505b6001600288020188555050505b505050505050565b600060408201905061236260008301856119f0565b61236f6020830184611a86565b9392505050565b7f4e487b7100000000000000000000000000000000000000000000000000000000600052601260045260246000fdfea264697066735822122035f719c508851d65673a9460e4547cd955d186ae82a5b87de2ca8337e9f0ed5964736f6c63430008180033",
  "linkReferences": {},
  "deployedLinkReferences": {}
}